{
  "_format": "hh-sol-artifact-1",
  "contractName": "WavePortal",
  "sourceName": "contracts/WavePortal.sol",
  "abi": [
    {
      "inputs": [],
      "stateMutability": "payable",
      "type": "constructor"
    },
    {
      "anonymous": false,
      "inputs": [
        {
          "indexed": true,
          "internalType": "address",
          "name": "from",
          "type": "address"
        },
        {
          "indexed": false,
          "internalType": "uint256",
          "name": "timestamp",
          "type": "uint256"
        },
        {
          "indexed": false,
          "internalType": "string",
          "name": "dish",
          "type": "string"
        },
        {
          "indexed": false,
          "internalType": "string",
          "name": "recipe",
          "type": "string"
        }
      ],
      "name": "NewWave",
      "type": "event"
    },
    {
      "inputs": [],
      "name": "getAllWaves",
      "outputs": [
        {
          "components": [
            {
              "internalType": "address",
              "name": "waver",
              "type": "address"
            },
            {
              "internalType": "string",
              "name": "dish",
              "type": "string"
            },
            {
              "internalType": "string",
              "name": "recipe",
              "type": "string"
            },
            {
              "internalType": "uint256",
              "name": "timestamp",
              "type": "uint256"
            }
          ],
          "internalType": "struct WavePortal.Wave[]",
          "name": "",
          "type": "tuple[]"
        }
      ],
      "stateMutability": "view",
      "type": "function"
    },
    {
      "inputs": [],
      "name": "getTotalWaves",
      "outputs": [
        {
          "internalType": "uint256",
          "name": "",
          "type": "uint256"
        }
      ],
      "stateMutability": "view",
      "type": "function"
    },
    {
      "inputs": [
        {
          "internalType": "address",
          "name": "",
          "type": "address"
        }
      ],
      "name": "lastWavedAt",
      "outputs": [
        {
          "internalType": "uint256",
          "name": "",
          "type": "uint256"
        }
      ],
      "stateMutability": "view",
      "type": "function"
    },
    {
      "inputs": [
        {
          "internalType": "string",
          "name": "_dish",
          "type": "string"
        },
        {
          "internalType": "string",
          "name": "_recipe",
          "type": "string"
        }
      ],
      "name": "wave",
      "outputs": [],
      "stateMutability": "nonpayable",
      "type": "function"
    }
  ],
  "bytecode": "0x60806040526200004f6040518060400160405280601b81526020017f526561647920746f206275696c642061207765623320644170702100000000008152506200005560201b620007421760201c565b620001e9565b620000f5816040516024016200006c919062000162565b6040516020818303038152906040527f41304fac000000000000000000000000000000000000000000000000000000007bffffffffffffffffffffffffffffffffffffffffffffffffffffffff19166020820180517bffffffffffffffffffffffffffffffffffffffffffffffffffffffff8381831617835250505050620000f860201b60201c565b50565b60008151905060006a636f6e736f6c652e6c6f679050602083016000808483855afa5050505050565b60006200012e8262000186565b6200013a818562000191565b93506200014c818560208601620001a2565b6200015781620001d8565b840191505092915050565b600060208201905081810360008301526200017e818462000121565b905092915050565b600081519050919050565b600082825260208201905092915050565b60005b83811015620001c2578082015181840152602081019050620001a5565b83811115620001d2576000848401525b50505050565b6000601f19601f8301169050919050565b61125480620001f96000396000f3fe608060405234801561001057600080fd5b506004361061004c5760003560e01c806351872959146100515780639a2cdc081461006d578063a42a46631461008b578063bd43a908146100bb575b600080fd5b61006b60048036038101906100669190610a85565b6100d9565b005b6100756104fc565b6040516100829190610ed1565b60405180910390f35b6100a560048036038101906100a09190610a5c565b610547565b6040516100b29190610ed1565b60405180910390f35b6100c361055f565b6040516100d09190610dcd565b60405180910390f35b42601e600360003373ffffffffffffffffffffffffffffffffffffffff1673ffffffffffffffffffffffffffffffffffffffff168152602001908152602001600020546101269190611003565b10610166576040517f08c379a000000000000000000000000000000000000000000000000000000000815260040161015d90610eb1565b60405180910390fd5b42600360003373ffffffffffffffffffffffffffffffffffffffff1673ffffffffffffffffffffffffffffffffffffffff1681526020019081526020016000208190555060016000808282546101bc9190611003565b925050819055506102026040518060400160405280600d81526020017f2573206861732077617665642100000000000000000000000000000000000000815250336107db565b600260405180608001604052803373ffffffffffffffffffffffffffffffffffffffff16815260200184815260200183815260200142815250908060018154018082558091505060019003906000526020600020906004020160009091909190915060008201518160000160006101000a81548173ffffffffffffffffffffffffffffffffffffffff021916908373ffffffffffffffffffffffffffffffffffffffff16021790555060208201518160010190805190602001906102c792919061093c565b5060408201518160020190805190602001906102e492919061093c565b506060820151816003015550506000606460015442446103049190611003565b61030e9190611003565b6103189190611109565b90506103596040518060400160405280601681526020017f52616e646f6d20232067656e6572617465643a2025730000000000000000000081525082610877565b8060018190555060328110156104a5576103a86040518060400160405280600681526020017f257320776f6e0000000000000000000000000000000000000000000000000000815250336107db565b6000655af3107a40009050478111156103f6576040517f08c379a00000000000000000000000000000000000000000000000000000000081526004016103ed90610e71565b60405180910390fd5b60003373ffffffffffffffffffffffffffffffffffffffff168260405161041c90610db8565b60006040518083038185875af1925050503d8060008114610459576040519150601f19603f3d011682016040523d82523d6000602084013e61045e565b606091505b50509050806104a2576040517f08c379a000000000000000000000000000000000000000000000000000000000815260040161049990610e91565b60405180910390fd5b50505b3373ffffffffffffffffffffffffffffffffffffffff167f0646f10b0148fe8db9a43af10b6956b53e1478c47afc7132c17e243449dfd3394285856040516104ef93929190610eec565b60405180910390a2505050565b600061053f6040518060400160405280601781526020017f5765206861766520256420746f74616c20776176657321000000000000000000815250600054610877565b600054905090565b60036020528060005260406000206000915090505481565b60606002805480602002602001604051908101604052809291908181526020016000905b8282101561073957838290600052602060002090600402016040518060800160405290816000820160009054906101000a900473ffffffffffffffffffffffffffffffffffffffff1673ffffffffffffffffffffffffffffffffffffffff1673ffffffffffffffffffffffffffffffffffffffff16815260200160018201805461060c906110d7565b80601f0160208091040260200160405190810160405280929190818152602001828054610638906110d7565b80156106855780601f1061065a57610100808354040283529160200191610685565b820191906000526020600020905b81548152906001019060200180831161066857829003601f168201915b5050505050815260200160028201805461069e906110d7565b80601f01602080910402602001604051908101604052809291908181526020018280546106ca906110d7565b80156107175780601f106106ec57610100808354040283529160200191610717565b820191906000526020600020905b8154815290600101906020018083116106fa57829003601f168201915b5050505050815260200160038201548152505081526020019060010190610583565b50505050905090565b6107d8816040516024016107569190610def565b6040516020818303038152906040527f41304fac000000000000000000000000000000000000000000000000000000007bffffffffffffffffffffffffffffffffffffffffffffffffffffffff19166020820180517bffffffffffffffffffffffffffffffffffffffffffffffffffffffff8381831617835250505050610913565b50565b61087382826040516024016107f1929190610e11565b6040516020818303038152906040527f319af333000000000000000000000000000000000000000000000000000000007bffffffffffffffffffffffffffffffffffffffffffffffffffffffff19166020820180517bffffffffffffffffffffffffffffffffffffffffffffffffffffffff8381831617835250505050610913565b5050565b61090f828260405160240161088d929190610e41565b6040516020818303038152906040527f9710a9d0000000000000000000000000000000000000000000000000000000007bffffffffffffffffffffffffffffffffffffffffffffffffffffffff19166020820180517bffffffffffffffffffffffffffffffffffffffffffffffffffffffff8381831617835250505050610913565b5050565b60008151905060006a636f6e736f6c652e6c6f679050602083016000808483855afa5050505050565b828054610948906110d7565b90600052602060002090601f01602090048101928261096a57600085556109b1565b82601f1061098357805160ff19168380011785556109b1565b828001600101855582156109b1579182015b828111156109b0578251825591602001919060010190610995565b5b5090506109be91906109c2565b5090565b5b808211156109db5760008160009055506001016109c3565b5090565b60006109f26109ed84610f62565b610f31565b905082815260208101848484011115610a0a57600080fd5b610a15848285611095565b509392505050565b600081359050610a2c81611207565b92915050565b600082601f830112610a4357600080fd5b8135610a538482602086016109df565b91505092915050565b600060208284031215610a6e57600080fd5b6000610a7c84828501610a1d565b91505092915050565b60008060408385031215610a9857600080fd5b600083013567ffffffffffffffff811115610ab257600080fd5b610abe85828601610a32565b925050602083013567ffffffffffffffff811115610adb57600080fd5b610ae785828601610a32565b9150509250929050565b6000610afd8383610d30565b905092915050565b610b0e81611059565b82525050565b610b1d81611059565b82525050565b6000610b2e82610fa2565b610b388185610fc5565b935083602082028501610b4a85610f92565b8060005b85811015610b865784840389528151610b678582610af1565b9450610b7283610fb8565b925060208a01995050600181019050610b4e565b50829750879550505050505092915050565b6000610ba382610fad565b610bad8185610fe1565b9350610bbd8185602086016110a4565b610bc6816111f6565b840191505092915050565b6000610bdc82610fad565b610be68185610ff2565b9350610bf68185602086016110a4565b610bff816111f6565b840191505092915050565b6000610c17603483610ff2565b91507f547279696e6720746f207769746864726177206d6f7265206d6f6e657920746860008301527f616e2074686520636f6e7472616374206861732e0000000000000000000000006020830152604082019050919050565b6000610c7d602783610ff2565b91507f4661696c656420746f207769746864726177206d6f6e65792066726f6d20636f60008301527f6e74726163742e000000000000000000000000000000000000000000000000006020830152604082019050919050565b6000610ce3600c83610ff2565b91507f57616974203330207365637300000000000000000000000000000000000000006000830152602082019050919050565b6000610d23600083610fd6565b9150600082019050919050565b6000608083016000830151610d486000860182610b05565b5060208301518482036020860152610d608282610b98565b91505060408301518482036040860152610d7a8282610b98565b9150506060830151610d8f6060860182610d9a565b508091505092915050565b610da38161108b565b82525050565b610db28161108b565b82525050565b6000610dc382610d16565b9150819050919050565b60006020820190508181036000830152610de78184610b23565b905092915050565b60006020820190508181036000830152610e098184610bd1565b905092915050565b60006040820190508181036000830152610e2b8185610bd1565b9050610e3a6020830184610b14565b9392505050565b60006040820190508181036000830152610e5b8185610bd1565b9050610e6a6020830184610da9565b9392505050565b60006020820190508181036000830152610e8a81610c0a565b9050919050565b60006020820190508181036000830152610eaa81610c70565b9050919050565b60006020820190508181036000830152610eca81610cd6565b9050919050565b6000602082019050610ee66000830184610da9565b92915050565b6000606082019050610f016000830186610da9565b8181036020830152610f138185610bd1565b90508181036040830152610f278184610bd1565b9050949350505050565b6000604051905081810181811067ffffffffffffffff82111715610f5857610f576111c7565b5b8060405250919050565b600067ffffffffffffffff821115610f7d57610f7c6111c7565b5b601f19601f8301169050602081019050919050565b6000819050602082019050919050565b600081519050919050565b600081519050919050565b6000602082019050919050565b600082825260208201905092915050565b600081905092915050565b600082825260208201905092915050565b600082825260208201905092915050565b600061100e8261108b565b91506110198361108b565b9250827fffffffffffffffffffffffffffffffffffffffffffffffffffffffffffffffff0382111561104e5761104d61113a565b5b828201905092915050565b60006110648261106b565b9050919050565b600073ffffffffffffffffffffffffffffffffffffffff82169050919050565b6000819050919050565b82818337600083830152505050565b60005b838110156110c25780820151818401526020810190506110a7565b838111156110d1576000848401525b50505050565b600060028204905060018216806110ef57607f821691505b6020821081141561110357611102611198565b5b50919050565b60006111148261108b565b915061111f8361108b565b92508261112f5761112e611169565b5b828206905092915050565b7f4e487b7100000000000000000000000000000000000000000000000000000000600052601160045260246000fd5b7f4e487b7100000000000000000000000000000000000000000000000000000000600052601260045260246000fd5b7f4e487b7100000000000000000000000000000000000000000000000000000000600052602260045260246000fd5b7f4e487b7100000000000000000000000000000000000000000000000000000000600052604160045260246000fd5b6000601f19601f8301169050919050565b61121081611059565b811461121b57600080fd5b5056fea26469706673582212206b760bb277cd10b5f6acbbc2835b1ddc8d97d2402ed9d070d60031e73189871b64736f6c63430008000033",
  "linkReferences": {},
  "deployedLinkReferences": {}
}