{
    "_format": "hh-sol-artifact-1",
    "contractName": "WavePortal",
    "sourceName": "contracts/WavePortal.sol",
    "abi": [
        {
            "inputs": [],
            "stateMutability": "payable",
            "type": "constructor"
        },
        {
            "anonymous": false,
            "inputs": [
                {
                    "indexed": true,
                    "internalType": "address",
                    "name": "from",
                    "type": "address"
                },
                {
                    "indexed": false,
                    "internalType": "uint256",
                    "name": "timestamp",
                    "type": "uint256"
                },
                {
                    "indexed": false,
                    "internalType": "string",
                    "name": "dish",
                    "type": "string"
                },
                {
                    "indexed": false,
                    "internalType": "string",
                    "name": "recipe",
                    "type": "string"
                }
            ],
            "name": "NewWave",
            "type": "event"
        },
        {
            "inputs": [],
            "name": "getAllWaves",
            "outputs": [
                {
                    "components": [
                        {
                            "internalType": "address",
                            "name": "waver",
                            "type": "address"
                        },
                        {
                            "internalType": "string",
                            "name": "dish",
                            "type": "string"
                        },
                        {
                            "internalType": "string",
                            "name": "recipe",
                            "type": "string"
                        },
                        {
                            "internalType": "uint256",
                            "name": "timestamp",
                            "type": "uint256"
                        }
                    ],
                    "internalType": "struct WavePortal.Wave[]",
                    "name": "",
                    "type": "tuple[]"
                }
            ],
            "stateMutability": "view",
            "type": "function"
        },
        {
            "inputs": [],
            "name": "getRandomNumber",
            "outputs": [
                {
                    "internalType": "uint256",
                    "name": "",
                    "type": "uint256"
                }
            ],
            "stateMutability": "view",
            "type": "function"
        },
        {
            "inputs": [],
            "name": "getTotalWaves",
            "outputs": [
                {
                    "internalType": "uint256",
                    "name": "",
                    "type": "uint256"
                }
            ],
            "stateMutability": "view",
            "type": "function"
        },
        {
            "inputs": [
                {
                    "internalType": "address",
                    "name": "",
                    "type": "address"
                }
            ],
            "name": "lastWavedAt",
            "outputs": [
                {
                    "internalType": "uint256",
                    "name": "",
                    "type": "uint256"
                }
            ],
            "stateMutability": "view",
            "type": "function"
        },
        {
            "inputs": [
                {
                    "internalType": "string",
                    "name": "_dish",
                    "type": "string"
                },
                {
                    "internalType": "string",
                    "name": "_recipe",
                    "type": "string"
                }
            ],
            "name": "wave",
            "outputs": [],
            "stateMutability": "nonpayable",
            "type": "function"
        }
    ],
    "bytecode": "0x60806040526200004f6040518060400160405280601b81526020017f526561647920746f206275696c642061207765623320644170702100000000008152506200005560201b6200077d1760201c565b620001e9565b620000f5816040516024016200006c919062000162565b6040516020818303038152906040527f41304fac000000000000000000000000000000000000000000000000000000007bffffffffffffffffffffffffffffffffffffffffffffffffffffffff19166020820180517bffffffffffffffffffffffffffffffffffffffffffffffffffffffff8381831617835250505050620000f860201b60201c565b50565b60008151905060006a636f6e736f6c652e6c6f679050602083016000808483855afa5050505050565b60006200012e8262000186565b6200013a818562000191565b93506200014c818560208601620001a2565b6200015781620001d8565b840191505092915050565b600060208201905081810360008301526200017e818462000121565b905092915050565b600081519050919050565b600082825260208201905092915050565b60005b83811015620001c2578082015181840152602081019050620001a5565b83811115620001d2576000848401525b50505050565b6000601f19601f8301169050919050565b61128f80620001f96000396000f3fe608060405234801561001057600080fd5b50600436106100575760003560e01c8063518729591461005c5780639a2cdc0814610078578063a42a466314610096578063bd43a908146100c6578063dbdff2c1146100e4575b600080fd5b61007660048036038101906100719190610ac0565b610102565b005b61008061052d565b60405161008d9190610f0c565b60405180910390f35b6100b060048036038101906100ab9190610a97565b610578565b6040516100bd9190610f0c565b60405180910390f35b6100ce610590565b6040516100db9190610e08565b60405180910390f35b6100ec610773565b6040516100f99190610f0c565b60405180910390f35b42605a600460003373ffffffffffffffffffffffffffffffffffffffff1673ffffffffffffffffffffffffffffffffffffffff1681526020019081526020016000205461014f919061103e565b1061018f576040517f08c379a000000000000000000000000000000000000000000000000000000000815260040161018690610eec565b60405180910390fd5b42600460003373ffffffffffffffffffffffffffffffffffffffff1673ffffffffffffffffffffffffffffffffffffffff1681526020019081526020016000208190555060016000808282546101e5919061103e565b9250508190555061022b6040518060400160405280600d81526020017f257320686173207761766564210000000000000000000000000000000000000081525033610816565b600360405180608001604052803373ffffffffffffffffffffffffffffffffffffffff16815260200184815260200183815260200142815250908060018154018082558091505060019003906000526020600020906004020160009091909190915060008201518160000160006101000a81548173ffffffffffffffffffffffffffffffffffffffff021916908373ffffffffffffffffffffffffffffffffffffffff16021790555060208201518160010190805190602001906102f0929190610977565b50604082015181600201908051906020019061030d929190610977565b506060820151816003015550506064600154424461032b919061103e565b610335919061103e565b61033f9190611144565b6002819055506103866040518060400160405280601681526020017f52616e646f6d20232067656e6572617465643a202573000000000000000000008152506002546108b2565b600254600181905550600f60025410156104d7576103d96040518060400160405280600681526020017f257320776f6e000000000000000000000000000000000000000000000000000081525033610816565b60006605543df729c000905047811115610428576040517f08c379a000000000000000000000000000000000000000000000000000000000815260040161041f90610eac565b60405180910390fd5b60003373ffffffffffffffffffffffffffffffffffffffff168260405161044e90610df3565b60006040518083038185875af1925050503d806000811461048b576040519150601f19603f3d011682016040523d82523d6000602084013e610490565b606091505b50509050806104d4576040517f08c379a00000000000000000000000000000000000000000000000000000000081526004016104cb90610ecc565b60405180910390fd5b50505b3373ffffffffffffffffffffffffffffffffffffffff167f0646f10b0148fe8db9a43af10b6956b53e1478c47afc7132c17e243449dfd33942848460405161052193929190610f27565b60405180910390a25050565b60006105706040518060400160405280601781526020017f5765206861766520256420746f74616c207761766573210000000000000000008152506000546108b2565b600054905090565b60046020528060005260406000206000915090505481565b60606003805480602002602001604051908101604052809291908181526020016000905b8282101561076a57838290600052602060002090600402016040518060800160405290816000820160009054906101000a900473ffffffffffffffffffffffffffffffffffffffff1673ffffffffffffffffffffffffffffffffffffffff1673ffffffffffffffffffffffffffffffffffffffff16815260200160018201805461063d90611112565b80601f016020809104026020016040519081016040528092919081815260200182805461066990611112565b80156106b65780601f1061068b576101008083540402835291602001916106b6565b820191906000526020600020905b81548152906001019060200180831161069957829003601f168201915b505050505081526020016002820180546106cf90611112565b80601f01602080910402602001604051908101604052809291908181526020018280546106fb90611112565b80156107485780601f1061071d57610100808354040283529160200191610748565b820191906000526020600020905b81548152906001019060200180831161072b57829003601f168201915b50505050508152602001600382015481525050815260200190600101906105b4565b50505050905090565b6000600254905090565b610813816040516024016107919190610e2a565b6040516020818303038152906040527f41304fac000000000000000000000000000000000000000000000000000000007bffffffffffffffffffffffffffffffffffffffffffffffffffffffff19166020820180517bffffffffffffffffffffffffffffffffffffffffffffffffffffffff838183161783525050505061094e565b50565b6108ae828260405160240161082c929190610e4c565b6040516020818303038152906040527f319af333000000000000000000000000000000000000000000000000000000007bffffffffffffffffffffffffffffffffffffffffffffffffffffffff19166020820180517bffffffffffffffffffffffffffffffffffffffffffffffffffffffff838183161783525050505061094e565b5050565b61094a82826040516024016108c8929190610e7c565b6040516020818303038152906040527f9710a9d0000000000000000000000000000000000000000000000000000000007bffffffffffffffffffffffffffffffffffffffffffffffffffffffff19166020820180517bffffffffffffffffffffffffffffffffffffffffffffffffffffffff838183161783525050505061094e565b5050565b60008151905060006a636f6e736f6c652e6c6f679050602083016000808483855afa5050505050565b82805461098390611112565b90600052602060002090601f0160209004810192826109a557600085556109ec565b82601f106109be57805160ff19168380011785556109ec565b828001600101855582156109ec579182015b828111156109eb5782518255916020019190600101906109d0565b5b5090506109f991906109fd565b5090565b5b80821115610a165760008160009055506001016109fe565b5090565b6000610a2d610a2884610f9d565b610f6c565b905082815260208101848484011115610a4557600080fd5b610a508482856110d0565b509392505050565b600081359050610a6781611242565b92915050565b600082601f830112610a7e57600080fd5b8135610a8e848260208601610a1a565b91505092915050565b600060208284031215610aa957600080fd5b6000610ab784828501610a58565b91505092915050565b60008060408385031215610ad357600080fd5b600083013567ffffffffffffffff811115610aed57600080fd5b610af985828601610a6d565b925050602083013567ffffffffffffffff811115610b1657600080fd5b610b2285828601610a6d565b9150509250929050565b6000610b388383610d6b565b905092915050565b610b4981611094565b82525050565b610b5881611094565b82525050565b6000610b6982610fdd565b610b738185611000565b935083602082028501610b8585610fcd565b8060005b85811015610bc15784840389528151610ba28582610b2c565b9450610bad83610ff3565b925060208a01995050600181019050610b89565b50829750879550505050505092915050565b6000610bde82610fe8565b610be8818561101c565b9350610bf88185602086016110df565b610c0181611231565b840191505092915050565b6000610c1782610fe8565b610c21818561102d565b9350610c318185602086016110df565b610c3a81611231565b840191505092915050565b6000610c5260348361102d565b91507f547279696e6720746f207769746864726177206d6f7265206d6f6e657920746860008301527f616e2074686520636f6e7472616374206861732e0000000000000000000000006020830152604082019050919050565b6000610cb860278361102d565b91507f4661696c656420746f207769746864726177206d6f6e65792066726f6d20636f60008301527f6e74726163742e000000000000000000000000000000000000000000000000006020830152604082019050919050565b6000610d1e600c8361102d565b91507f57616974203930207365637300000000000000000000000000000000000000006000830152602082019050919050565b6000610d5e600083611011565b9150600082019050919050565b6000608083016000830151610d836000860182610b40565b5060208301518482036020860152610d9b8282610bd3565b91505060408301518482036040860152610db58282610bd3565b9150506060830151610dca6060860182610dd5565b508091505092915050565b610dde816110c6565b82525050565b610ded816110c6565b82525050565b6000610dfe82610d51565b9150819050919050565b60006020820190508181036000830152610e228184610b5e565b905092915050565b60006020820190508181036000830152610e448184610c0c565b905092915050565b60006040820190508181036000830152610e668185610c0c565b9050610e756020830184610b4f565b9392505050565b60006040820190508181036000830152610e968185610c0c565b9050610ea56020830184610de4565b9392505050565b60006020820190508181036000830152610ec581610c45565b9050919050565b60006020820190508181036000830152610ee581610cab565b9050919050565b60006020820190508181036000830152610f0581610d11565b9050919050565b6000602082019050610f216000830184610de4565b92915050565b6000606082019050610f3c6000830186610de4565b8181036020830152610f4e8185610c0c565b90508181036040830152610f628184610c0c565b9050949350505050565b6000604051905081810181811067ffffffffffffffff82111715610f9357610f92611202565b5b8060405250919050565b600067ffffffffffffffff821115610fb857610fb7611202565b5b601f19601f8301169050602081019050919050565b6000819050602082019050919050565b600081519050919050565b600081519050919050565b6000602082019050919050565b600082825260208201905092915050565b600081905092915050565b600082825260208201905092915050565b600082825260208201905092915050565b6000611049826110c6565b9150611054836110c6565b9250827fffffffffffffffffffffffffffffffffffffffffffffffffffffffffffffffff0382111561108957611088611175565b5b828201905092915050565b600061109f826110a6565b9050919050565b600073ffffffffffffffffffffffffffffffffffffffff82169050919050565b6000819050919050565b82818337600083830152505050565b60005b838110156110fd5780820151818401526020810190506110e2565b8381111561110c576000848401525b50505050565b6000600282049050600182168061112a57607f821691505b6020821081141561113e5761113d6111d3565b5b50919050565b600061114f826110c6565b915061115a836110c6565b92508261116a576111696111a4565b5b828206905092915050565b7f4e487b7100000000000000000000000000000000000000000000000000000000600052601160045260246000fd5b7f4e487b7100000000000000000000000000000000000000000000000000000000600052601260045260246000fd5b7f4e487b7100000000000000000000000000000000000000000000000000000000600052602260045260246000fd5b7f4e487b7100000000000000000000000000000000000000000000000000000000600052604160045260246000fd5b6000601f19601f8301169050919050565b61124b81611094565b811461125657600080fd5b5056fea2646970667358221220aaffbf101c3e911eb8f6573bbd74b7de15d6cb4e5dc154a4ef658db32bfd9a9964736f6c63430008000033",
    "linkReferences": {},
    "deployedLinkReferences": {}
}